:100000000C9447040C946F040C946F040C946F04CC
:100010000C946F040C946F040C946F040C946F0494
:100020000C946F040C946F040C94A30A0C94120BA0
:100030000C946F040C946F040C946F040C946F0474
:100040000C946F040C94550E0C946F040C946F0474
:100050000C946F040C946F040C946F040C94440D76
:100060000C946F040C946F040C946F040C946F0444
:100070000C946F040C946F040C946F040C946F0434
:100080000C948E0D0C946F040C946F040C946F04FC
:100090000C946F040C946F040C946F040C946F0414
:1000A0000C946F040C946F040C946F040000000017
:1000B000003E5B4F5B3E3E6B4F6B3E1C3E7C3E1CEE
:1000C000183C7E3C181C577D571C1C5E7F5E1C0034
:1000D000183C1800FFE7C3E7FF0018241800FFE7EB
:1000E000DBE7FF30483A060E2629792926407F05AE
:1000F0000507407F05253F5A3CE73C5A7F3E1C1CC4
:1001000008081C1C3E7F14227F22145F5F005F5F83
:1001100006097F017F006689956A6060606060946F
:10012000A2FFA29408047E040810207E2010080874
:100130002A1C08081C2A08081E101010100C1E0C7F
:100140001E0C30383E3830060E3E0E060000000011
:100150000000005F00000007000700147F147F14F8
:10016000242A7F2A1223130864623649562050003D
:1001700008070300001C2241000041221C002A1C29
:100180007F1C2A08083E0808008070300008080814
:100190000808000060600020100804023E51494534
:1001A0003E00427F400072494949462141494D3352
:1001B0001814127F1027454545393C4A49493141B9
:1001C000211109073649494936464949291E000087
:1001D00014000000403400000008142241141414DC
:1001E0001414004122140802015909063E415D59C8
:1001F0004E7C1211127C7F494949363E41414122D1
:100200007F4141413E7F494949417F090909013EFA
:10021000414151737F0808087F00417F4100204021
:10022000413F017F081422417F404040407F021C33
:10023000027F7F0408107F3E4141413E7F0909094A
:10024000063E4151215E7F09192946264949493216
:1002500003017F01033F4040403F1F2040201F3FDC
:100260004038403F63140814630304780403615961
:10027000494D43007F4141410204081020004141A3
:10028000417F04020102044040404040000307084F
:100290000020545478407F2844443838444444284B
:1002A000384444287F385454541800087E090218F2
:1002B000A4A49C787F0804047800447D400020407A
:1002C000403D007F1028440000417F40007C0478BE
:1002D00004787C080404783844444438FC18242406
:1002E0001818242418FC7C08040408485454542486
:1002F00004043F44243C4040207C1C2040201C3C03
:100300004030403C44281028444C9090907C4464F9
:10031000544C44000836410000007700000041368C
:10032000080002010204023C2623263C1EA1A16112
:10033000123A4040207A3854545559215555794144
:100340002154547841215554784020545579400C1B
:100350001E527212395555555939545454593955FC
:100360005454580000457C410002457D420001453F
:100370007C40F0292429F0F0282528F07C545545AC
:10038000002054547C547C0A097F4932494949323F
:100390003248484832324A4848303A4141217A3A54
:1003A00042402078009DA0A07D39444444393D401E
:1003B00040403D3C24FF2424487E4943662B2FFCCB
:1003C0002F2BFF0929F620C0887E09032054547979
:1003D000410000447D413048484A32384040227A4A
:1003E000007A0A0A727D0D19317D2629292F2826C7
:1003F0002929292630484D402038080808080808CF
:100400000808382F10C8ACBA2F102834FA00007B27
:10041000000008142A142222142A1408950022002D
:1004200095AA005500AAAA55AA55AA000000FF00E7
:10043000101010FF00141414FF001010FF00FF1024
:1004400010F010F0141414FC001414F700FF000056
:10045000FF00FF1414F404FC141417101F10101FD5
:10046000101F1414141F00101010F0000000001FC3
:10047000101010101F10101010F010000000FF10CE
:100480001010101010101010FF10000000FF1400CA
:1004900000FF00FF00001F10170000FC04F41414FC
:1004A0001710171414F404F40000FF00F7141414C8
:1004B00014141414F700F7141414171410101F1048
:1004C0001F141414F4141010F010F000001F101F6B
:1004D0000000001F14000000FC140000F010F010D9
:1004E00010FF10FF141414FF141010101F00000050
:1004F00000F010FFFFFFFFFFF0F0F0F0F0FFFFFF54
:100500000000000000FFFF0F0F0F0F0F38444438AA
:10051000447C2A2A3E147E02020606027E027E02E5
:1005200063554941633844443C04407E201E200604
:10053000027E020299A5E7A5991C2A492A1C4C7241
:1005400001724C304A4D4D303048784830BC625AC8
:10055000463D3E494949007E0101017E2A2A2A2A58
:100560002A44445F444440514A444040444A514034
:100570000000FF0103E080FF000008086B6B0836F5
:1005800012362436060F090F060000181800000066
:100590001010003040FF0101001F01011E00191D55
:1005A0001712003C3C3C3C00000000000601150115
:1005B000260137014A015D01720188019F01B801DE
:1005C000D201EE010B022A024B026E029302BA0222
:1005D000E40210033F037003A403DC031704550473
:1005E0009704DD0427057505C80520067D06E0068D
:1005F0004907B8072D08A9082D09B9094D0AEA0AC3
:10060000900B400CFA0CC00D910E6F0F5A10531145
:100610005B1272139A14D41520178018F519801BD9
:10062000231DDE1EB420A622B524E4263429A72BE0
:10063000402E0031EA330037453ABC3D68414C4515
:100640006B49C84D68524F57805C006210111213FD
:10065000151617181A1C1D1F21232527292C2E318A
:1006600034373A3E4145494E52575C62686E757B5D
:10067000838B939CA5AFB9C4D0DCE9F700000002DE
:1006800000090F0000030401000C0000000000003E
:100690000000000000000000000000F0F89C8E87C1
:1006A00083878E9CF8F00000FEFF0303030303071B
:1006B0000EFCF80000FEFF0303030303070EFCF823
:1006C0000000FFFF00000000000000FFFF0000FE30
:1006D000FF8383838383C7EE7C380000F8FC0E071A
:1006E000030303070EFCF800003F7FE0C08080C0DA
:1006F000E07F3FFFFF01010101010101FFFF000059
:10070000FFFF0C0C0C0C1C3E77E3C100007FFFC008
:10071000C0C0C0C0E0703F1F00001F3F70E0C0C0FD
:10072000C0E0703F1F00007FFFC1C1C1C1C1E377BE
:100730003E1C00001F3F70E0C0C0C0E0703F1F00C3
:100740000000000001FFFF01000000000000002485
:100750000027002A002D003000D5F08D14A1C8819B
:10076000CFD9F1AF200014021302120215020702C2
:10077000080204010C010601003FBFFF915987BD2B
:10078000F761DDF8FB70F4DF81F936B7DE7AEB6DE7
:100790005CE6DE7BC7CC34232BC99E27FFFE7F0B94
:1007A0005B57FEB1ADF547C822FFFC7E6CC73FC06A
:1007B0008CC1F7BAF954C63F426D6078CDADFBB439
:1007C0000E7BDDB232ECE62F0D080B0002020200B8
:1007D00000090400000102020000052400100105C8
:1007E00024010101042402060524060001070581F5
:1007F0000310004009040100020A0000000705027E
:1008000002400000070583024000000403090412AF
:10081000010002EF02014041233680000101020382
:100820000141726475696E6F204C4C4300417264E3
:1008300075696E6F204C656F6E6172646F0004089D
:1008400002011040804010204080408008020401D6
:100850008040201002011080102040402000000045
:1008600000250028002B002E00310004040404049D
:100870000304050202020204030202020206060643
:10088000060606040402020204040301C00E112439
:100890001FBECFEFDAE0DEBFCDBF11E0A0E0B1E0D8
:1008A000ECE5F7E202C005900D92AA33B107D9F743
:1008B00025E0AAE3B1E001C01D92A03EB207E1F736
:1008C00014E0C7E4D4E004C02197FE010E94A11304
:1008D000C634D107C9F70E94F30E0C94AC130C94E4
:1008E00000008AED91E020E0B22FB111BFEFFC01D2
:1008F0000024B193B193B193B1930394D1F70895C8
:10090000FC0180916E01882311F13FB7F89482E0D9
:100910008093E9002091F200822F90E018161906CA
:1009200014F481E090E0882339F0289844E640935D
:100930006D014091F1004083222339F02091F200B3
:10094000211103C02BE62093E8003FBF08958FEFED
:100950009FEF08952FB7F89483E08093E90090917A
:10096000E800892F807295FF04C09091F20080E426
:10097000891B2FBF08958091650181110DC082E010
:100980008093610184E0809362011092640110926F
:10099000630181E08093650181E691E00895CF9342
:1009A000DF931F92CDB7DEB76983DC01ED91FC9137
:1009B0000280F381E02D41E050E0BE016F5F7F4F88
:1009C00009950F90DF91CF91089583E08093E9001E
:1009D0008091F200882319F08AE38093E80008955B
:1009E0000E94AA0490E00895CF93DF931F92CDB7A1
:1009F000DEB7FC018485958597FD08C02FEF3FEF9A
:100A0000358724870F90DF91CF910895CE0101960D
:100A10000E948004019719F4898190E0F3CF8FEF51
:100A20009FEFF0CF0F931F93CF93DF931F92CDB71C
:100A3000DEB78C01FC018485958597FF0BC0CE0144
:100A400001960E948004019771F4898190E0F80179
:100A500095878487F801848595850F90DF91CF91E4
:100A60001F910F9108958FEF9FEFF1CFFC018485C7
:100A7000958597FD0BC09FB7F89482E08093E900BD
:100A80008091F2009FBF90E0019608959FB7F8947F
:100A900082E08093E9008091F2009FBF90E008958A
:100AA00040915B0150915C012091590130915A01B4
:100AB00042175307B4F49091E8009570E1F39091D8
:100AC000E80092FD19C08093F10080915B01909144
:100AD0005C0101968F739927892B19F48EEF80930F
:100AE000E80080915B0190915C01019690935C011C
:100AF00080935B0181E0089580E00895EF92FF927A
:100B00000F931F93CF93DF93F82E192FE62E042F08
:100B100081E0860F880F0E94500583E00E945005F7
:100B2000CF2DD12FEC0EFD2EF11CCE15DF05B9F027
:100B300007FF13C0FE0184910E945005182F80E02A
:100B40000E945005812321968111EFCFDF91CF9133
:100B50001F910F91FF90EF9008958881EDCF81E074
:100B6000F5CFDF92EF92FF920F931F93CF93DF9316
:100B7000D82E8A01EB017B01E40EF51ECE15DF05B0
:100B800059F0D7FE12C0FE0184910E9450052196B3
:100B90008111F4CF0FEF1FEFC801DF91CF911F91AB
:100BA0000F91FF90EF90DF9008958881EECF0F9323
:100BB0001F93CF93DF931F92CDB7DEB782E0898377
:100BC00042E450E069EC77E080E80E94B1050E94C1
:100BD000BB04DC0112960D911C910115110589F0E1
:100BE000D801ED91FC910280F381E02DBE016F5F91
:100BF0007F4FC801099597FD04C0F8010085118554
:100C0000ECCF89810F90DF91CF911F910F910895C3
:100C1000615030F02091F100FC0120830196F8CF63
:100C2000289884E680936D010895AF92BF92CF9289
:100C3000DF92EF92FF920F931F93CF93DF936C019C
:100C40007B018B01040F151FEB015E01AE18BF087D
:100C5000C017D10759F06991D601ED91FC9101902F
:100C6000F081E02DC6010995892B79F7C501DF9147
:100C7000CF911F910F91FF90EF90DF90CF90BF9099
:100C8000AF900895282F30E0F901E458F94F94917E
:100C9000F901E25CF74F84912559374FF90124910E
:100CA000222309F430C09923E9F091509F30D0F409
:100CB000E92FF0E0E25AF94F0C94A1138C0690064C
:100CC0006D068406880672067206720693069906F9
:100CD0009D06A106A7067206AB06909180009F773D
:100CE00090938000E22FF0E0EE0FFF1FE35AF74FE2
:100CF000A591B4919FB7F894EC91611132C08095A1
:100D00008E238C939FBF0895909180009F7DE8CFA4
:100D100090918000977FE4CF94B59F7794BDE2CF08
:100D200094B59F7DFBCF909190009F77909390001A
:100D3000D9CF909190009F7DF9CF90919000977FAF
:100D4000F5CF9091C0009F779093C000CBCF90914A
:100D5000C0009F7DF9CF9091C200977F9093C20011
:100D6000C1CF8E2BCECFCF93DF9390E0FC01E25C1E
:100D7000F74F24918559974FFC0184918823C9F03E
:100D800090E0880F991FFC01E55BF84FA591B491A5
:100D9000FC01E35AF74FC591D49161110DC09FB783
:100DA000F8948C91209582238C9388812823288322
:100DB0009FBFDF91CF910895623051F49FB7F894AF
:100DC0003C91822F809583238C93E8812E2BEFCF4B
:100DD0008FB7F894EC912E2B2C938FBFEACF1F93F3
:100DE000CF93DF93182FEB0161E00E94B3062097A9
:100DF00039F460E0812FDF91CF911F910C9442066E
:100E0000CF3FD10511F461E0F5CFE12FF0E0E458D8
:100E1000F94FE491E150EF3008F07FC0F0E0ED5E73
:100E2000F84F0C94A11322072A072F07390743070D
:100E30008D078D078D074D07570761076B077807EB
:100E40008D07800784B5806884BDC7BDDF91CF91D1
:100E50001F91089584B5806284BDC8BDF7CF80918D
:100E60008000806880938000D0938900C0938800C0
:100E7000EDCF80918000806280938000D0938B00C2
:100E8000C0938A00E3CF80918000886080938000C7
:100E9000D0938D00C0938C00D9CF80919000806852
:100EA00080939000D0939900C0939800CFCF809109
:100EB0009000806280939000D0939B00C0939A0032
:100EC000C5CF80919000886080939000D0939D0062
:100ED000C0939C00BBCF8091C00080688093C0000D
:100EE0008091C0008F7B8093C000C093CF00AECFB5
:100EF0008091C00080628093C000C093D000A6CFD4
:100F00008091C20088608093C2008091C2008B7F74
:100F10008093C200C093D20099CFC038D1050CF0A5
:100F200072CF67CF3FB7F8948091490190914A0101
:100F3000A0914B01B0914C0126B5A89B05C02F3F55
:100F400019F00196A11DB11D3FBFBA2FA92F982FEF
:100F50008827BC01CD01620F711D811D911D42E0EA
:100F6000660F771F881F991F4A95D1F708958F92B2
:100F70009F92AF92BF92CF92DF92EF92FF924B017E
:100F80005C010E9492076B017C010E9492076C1920
:100F90007D098E099F09683E734081059105A8F37C
:100FA00021E0821A9108A108B10888EEC80E83E0FA
:100FB000D81EE11CF11C81149104A104B10429F78D
:100FC000FF90EF90DF90CF90BF90AF909F908F9069
:100FD00008958F929F92AF92BF92CF92DF92EF923D
:100FE000FF920F931F93CF93DF936C017B018A01D4
:100FF00080910B01882309F45CC080916E018823E5
:1010000009F457C08091600180FF05C08091E00025
:1010100082608093E000E801B12C8AEFA82E93E073
:10102000892E2AE3922E209711F4BB20D9F10E9439
:10103000AA0481110AC0AA94AA20D9F161E070E043
:1010400080E090E00E94B707EECF8C171D0611F0EC
:101050000CF08C2F9FB7F8948092E9002091E80063
:1010600025FD02C09FBFDFCF282F30E0C21BD30B6E
:10107000F701815020F041914093F100FACFE20E48
:10108000F31EBB2021F09092E800B12CEBCF8091B1
:10109000E80085FDE7CF9092E800BB24B394209749
:1010A00009F3F3CF5D9884E680935F011016110673
:1010B0003CF081E090E0F6019383828310E000E051
:1010C000C801DF91CF911F910F91FF90EF90DF90BA
:1010D000CF90BF90AF909F908F900895FC01219189
:1010E0002EBD9C5F21910DB407FEFDCF2EBDE817EC
:1010F000F907C1F70DB407FEFDCF0895CF92DF9237
:10110000EF92FF920F931F93CF93E82FF0E0E657F3
:10111000F74FC491E62FF0E0603398F5E45BF94FA8
:10112000E4910E2F10E0F12CE12C60E074E284EFEA
:1011300090E0A70198010E94511321503109410903
:10114000510991E02115310581E0480751056CF006
:1011500060E970ED83E090E0A70198010E945113CF
:10116000215031094109510993E0C13089F0C33060
:10117000F9F0CF911F910F91FF90EF90DF90CF90FA
:101180000895EE0FFF1FE45BFA4F05911491CBCF4A
:1011900080918100887F892B809381003093890022
:1011A0002093880080916F00826080936F00E1CF70
:1011B00080919100887F892B8093910030939900D2
:1011C00020939800109347010093460181E080939B
:1011D000450180917100826080937100CACFE82F31
:1011E000F0E0E657F74FE491E13019F0E33089F091
:1011F000089580916F008D7F80936F0080917201C0
:10120000E0917301F091740190818095892380832E
:1012100008951092450180916F01E0917001F09165
:101220007101F2CFCF93DF9390917501923081F0ED
:10123000C82FE92FF0E0E657F74FD4919F5F9093C6
:10124000750161E00E94B306D13029F0D33049F135
:10125000DF91CF91089510928000109281008091CB
:1012600081008860809381008091810081608093FB
:1012700081008C2F90E0FC01E559F74FE491F0E0FC
:10128000EE0FFF1FE35AF74F25913491309374010D
:1012900020937301825C974FFC01849180937201CB
:1012A000D7CF1092900010929100809191008860A9
:1012B00080939100809191008160809391008C2FA8
:1012C00090E0FC01E559F74FE491F0E0EE0FFF1FCD
:1012D000E35AF74F259134913093710120937001B7
:1012E000825C974FFC01849180936F01809175011E
:1012F000882321F06CE380E00E947E0880E0DF918B
:10130000CF910C94EF082F923F924F925F926F9281
:101310007F928F929F92AF92BF92CF92DF92EF9285
:10132000FF920F931F93CF93DF9300D000D0CDB7E0
:10133000DEB76A3069F5FC01EA5EFB4FDC01A85EAE
:10134000BB4F2C9148E0249F900111244081518192
:10135000240F351F318320838C5E9B4FDC011D924F
:101360001C920F900F900F900F90DF91CF911F91D3
:101370000F91FF90EF90DF90CF90BF90AF909F9034
:101380008F907F906F905F904F903F902F90089537
:101390006D3039F3FC01E85EFB4FB080349740813B
:1013A00051810B2D10E0403851050CF08DC0329664
:1013B00080809180B0E48B1691040CF085C075E0BC
:1013C0009A01B79E200D311D1124121613060CF040
:1013D0007BC09801E3E0220F331FEA95E1F7280D67
:1013E000391D121613060CF06FC0679FB00111244F
:1013F0005C834B83B0E0A0E0FB01E455FF4F1F018D
:10140000E0E0A53021F0F101EA0FFB1FE491740147
:1014100038E0A32E4E2E512CE1707E2E6B817C8104
:10142000262FFB812F1B2B15E0F51A8219822981AB
:101430002B15A0F56038710538F5C980DA80CE0C1F
:10144000DF1C30E4C316D104F8F42E0D322F36958C
:101450003695369520E8329FF0011124E60FF71FEC
:1014600037E0C322DD2421E030E002C0220F331F29
:10147000CA94E2F769019F01280F391FF9016488B6
:10148000772049F0C628C48A29813A812F5F3F4FCF
:101490003A832983CCCFC094C620F5CF6F5F7F4FAE
:1014A000BFCF55944794E42DAA94E00EF11EA110ED
:1014B000B1CF11962B813C81200F311F3C832B83B0
:1014C000A630B10509F09CCF36E0B39E400D511D0A
:1014D0001124FC01EC5EFB4F518340833596208143
:1014E000222309F43ECF6AEF60039001619F300D23
:1014F000112420583F4F241735070CF032CFDC0160
:10150000ED91FC910190F081E02D6AE00F900F9039
:101510000F900F90DF91CF911F910F91FF90EF905F
:10152000DF90CF90BF90AF909F908F907F906F9003
:101530005F904F903F902F900994089590E080E045
:1015400008950E94A7131F920F920FB60F921124B5
:101550008F939F938091E1009091E100937F90930E
:10156000E10083FF0FC01092E90091E09093EB003F
:101570001092EC0092E39093ED0010926E0198E0CF
:101580009093F00082FF22C093E09093E900909145
:10159000F200992319F09AE39093E80090915F018B
:1015A000992341F090915F01915090935F019111C7
:1015B00001C05D9A90916D01992341F090916D0168
:1015C000915090936D01911101C0289A84FF18C029
:1015D0008091E2008E7E81608093E2008091E10044
:1015E0008F7E8093E100809160018E7E8061809388
:1015F00060019F918F910F900FBE0F901F901895D3
:1016000080FFF7CF8091E2008E7E80618093E200C0
:101610008091E1008E7E8093E100809160018E7E5A
:101620008160E5CF1F920F920FB60F921124CF92D7
:10163000DF92EF92FF920F931F932F933F934F935D
:101640005F936F937F938F939F93AF93BF93EF932A
:10165000FF93CF93DF93CDB7DEB76C97DEBFCDBFDF
:101660001092E9008091E80083FF25C068E0CE0178
:1016700045960E94080682EF8093E8008D8987FFD7
:1016800039C09091E80090FFFCCF982F907609F038
:1016900034C19E894F89588D2F89F88C911131C0A2
:1016A000803861F580915E018093F1001092F10025
:1016B0008EEF8093E8006C960FB6F894DEBF0FBEF5
:1016C000CDBFDF91CF91FF91EF91BF91AF919F91EE
:1016D0008F917F916F915F914F913F912F911F91CA
:1016E0000F91FF90EF90DF90CF900F900FBE0F9073
:1016F0001F9018959EEF9093E800C7CF1092F100CD
:10170000D5CF913059F48111D3CF4130510581F6B5
:1017100080915E018D7F80935E01CACF933049F442
:101720008111C6CF4130510519F680915E0182606A
:10173000F2CF953041F48091E80080FFFCCF206823
:101740002093E300B5CF963009F0A9C00B8D1C8D16
:1017500022E01092E90010925C0110925B01F212FB
:101760002EC010925A01109259010E94D7051F8273
:1017700099E09983FA8291E09E8390EA98879AEFA4
:10178000998720915B0130915C01275F3F4F3C833B
:101790002B838D831092E90010925C0110925B0103
:1017A00010935A010093590149E050E0BE016F5F68
:1017B0007F4F80E00E94B1050E94D70579CF10933A
:1017C0005A01009359010E94BB04DC0112960D914D
:1017D0001C910115110509F451C1D801ED91FC913D
:1017E0000480F581E02DBE016B5E7F4FC801099535
:1017F000009709F03EC1F80100851185EACFF3E0BA
:10180000FF120EC08F89882309F440C0823061F432
:1018100040E860E18DE298E00E947E05811148CFAA
:1018200081E28093EB0047CF813029F440E86BE000
:1018300081E298E0F1CF833099F70E94BB04DC018C
:101840001296ED90FC908E010F5F1F4F6801E1141E
:10185000F10479F0D701ED91FC910680F781E02D3C
:10186000B801C7010995080F111DF701E084F18443
:10187000EECFD8011C92F60101900020E9F73197D4
:10188000BF016C197D0940E0C601C6CF6BE078E06E
:10189000FB01449150E080E80E94B10509CF9730E8
:1018A00009F4BECF983021F481E08093F10000CF9D
:1018B000993009F0FDCE837009F0B2CFE5E1F1E097
:1018C00081E031E096E32191222371F08093E900D9
:1018D0003093EB00DF0111972C912093EC00909353
:1018E000ED008F5F873079F78EE78093EA001092E2
:1018F000EA008F8980936E01DBCE8B8D9C8D1092D8
:10190000E90010925C0110925B0190935A01809360
:101910005901898D811192C08E899D89913A49F42E
:10192000813209F07DCF47E050E064E071E080E073
:10193000B3CF913209F074CF833269F48F89988DD7
:10194000B0E0A0E08093000190930101A093020118
:10195000B0930301ADCE803269F48091E80082FF3C
:10196000FCCF67E084E091E00E9408068BEF809353
:10197000E8009ECE823209F09BCE8F8980930B01C6
:10198000EEEFFFE7859194918B3F9C4D51F1E0E0A4
:10199000F8E08091040190910501A0910601B091B9
:1019A0000701803B9440A105B105F1F480910B0142
:1019B00080FD1AC0EE3F8AE0F80789F587E797E7D0
:1019C000918380838091600080935D0188E19BE03A
:1019D0000FB6F894A895809360000FBE90936000B6
:1019E00067CEEEEFFAE0D5CF8081918187379747B8
:1019F00009F05ECEA89580916000886180936000B8
:101A000080915D0180936000EE3F2AE0F20789F04B
:101A10008091FE0A9091FF0A9183808349CE808154
:101A200091818737980751F29093FF0A8093FE0ABD
:101A3000C5CF1092FF0A1092FE0A3ACE0E94BB0454
:101A4000DC0112960D911C910115110509F4E8CEE7
:101A5000D801ED91FC910190F081E02DBE016B5E0B
:101A60007F4FC8010995811123CEF80100851185AA
:101A7000EBCF181619060CF41BCED2CEF1E0FF12F4
:101A8000BECE6FE078E004CF1F920F920FB60F9298
:101A900011242F933F938F939F93AF93BF93809184
:101AA000550190915601A0915701B0915801309184
:101AB000480123E0230F2D3758F50196A11DB11DD4
:101AC000209348018093550190935601A0935701AC
:101AD000B09358018091490190914A01A0914B0126
:101AE000B0914C010196A11DB11D809349019093C5
:101AF0004A01A0934B01B0934C01BF91AF919F91CC
:101B00008F913F912F910F900FBE0F901F901895BE
:101B100026E8230F0296A11DB11DD2CF1F920F926E
:101B20000FB60F9211242F933F934F935F936F93B0
:101B30007F938F939F93AF93BF93EF93FF93809186
:101B40004501882349F080916F01E0917001F09187
:101B5000710190818927808380914D01882309F448
:101B600056C08091410190914201A0914301B091F2
:101B70004401892B8A2B8B2B09F449C080914101A8
:101B800090914201A0914301B09144010197A109B4
:101B9000B1098093410190934201A0934301B09316
:101BA0004401892B8A2B8B2B91F5E0913F01F09119
:101BB0004001BF016F5F7F4F7093400160933F0111
:101BC0002491922F907F822F8F70903819F40E9469
:101BD000EF08EBCF903981F43296F0934001E09317
:101BE0003F01FB016491909175018917F0F667FD43
:101BF000DCCF0E947E08D9CF903E29F4109240019C
:101C000010923F01D2CF903F99F410924D01FF9175
:101C1000EF91BF91AF919F918F917F916F915F9164
:101C20004F913F912F910F900FBE0F901F901895DD
:101C300097FDBBCF3296F0934001E0933F01FB014B
:101C40006491A0914601B0914701322F262F0E9446
:101C500092136C507E4F8F4F9F4F28EE33E040E041
:101C600050E00E9470132093410130934201409351
:101C70004301509344018091410190914201A09110
:101C80004301B0914401892B8A2B8B2B09F0BFCFE4
:101C900081E090E0A0E0B0E08093410190934201A8
:101CA000A0934301B0934401B2CF1F920F920FB69D
:101CB0000F9211248F939F93AF93BF93EF93FF9352
:101CC00080913E01882309F452C080913A0190919D
:101CD0003B01A0913C01B0913D01892B8A2B8B2BBC
:101CE000A1F190917201E0917301F09174018081F2
:101CF0008927808380913A0190913B01A0913C011A
:101D0000B0913D01181619061A061B069CF4809125
:101D10003A0190913B01A0913C01B0913D010197A6
:101D2000A109B10980933A0190933B01A0933C0132
:101D3000B0933D01FF91EF91BF91AF919F918F9132
:101D40000F900FBE0F901F90189510923E0180913A
:101D50006F008D7F80936F0080917201E09173011D
:101D6000F09174019081809589238083E3CF9091D5
:101D70007201E0917301F091740180818927F5CFA0
:101D8000E6E7F1E01382128288EE93E0A0E0B0E093
:101D900084839583A683B7838FE191E091838083C9
:101DA0008FEF9FEF95878487E6ECF1E01382128234
:101DB00081E391E0918380838CE3868380E1818756
:101DC0001086178216861786108A118A128A109238
:101DD000DB051092DA051092DD051092DC0581E03A
:101DE0008093DE050895CF93DF93CDB7DEB72B97B1
:101DF0000FB6F894DEBF0FBECDBF789484B5826075
:101E000084BD84B5816084BD85B5826085BD85B59E
:101E1000816085BD80916E00816080936E0010921C
:101E20008100809181008260809381008091810097
:101E30008160809381008091800081608093800028
:101E400080919100826080939100809191008160E7
:101E500080939100809190008160809390008091A8
:101E6000C10084608093C1008091C1008260809332
:101E7000C1008091C10081608093C1008091C30046
:101E800081608093C3008091C00082608093C00015
:101E90008091C20081608093C20080917A0084604A
:101EA00080937A0080917A00826080937A0080919A
:101EB0007A00816080937A0080917A0080688093B4
:101EC0007A0010926E0110925E0110926001809172
:101ED000D70081608093D70080EA8093D80089B5CD
:101EE000806189BD89B5826089BD09B400FEFDCFDE
:101EF00061E070E080E090E00E94B7078091D80038
:101F00008F7C80618093D8008091E000807F8093F7
:101F1000E0008091E1008E7E8093E1008DE080936F
:101F2000E200559A209AEFB6E982F89480914E012A
:101F3000811127C0ECE7F8E08491EFE4F8E0949198
:101F4000E82FF0E0EE0FFF1FE55BF84FA591B4918D
:101F5000EC91E92321F461E081E10E94420661E015
:101F600081E10E94B3068CB580618CBD8CB5806424
:101F70008CBD61E08FE00E94B30661E080E10E94C9
:101F8000B30680914E018F5F80934E01F980FFBEB2
:101F900006E617E01A83098369817A81FB0184913F
:101FA0006F5F7F4F3296FA83E983FB016491882348
:101FB00019F00E94B306F0CF61E086E00E9442066D
:101FC00061E070E080E090E00E94B70760E086E0AA
:101FD0000E9442066AE070E080E090E00E94B7074D
:101FE00061E086E00E944206E7E7F8E0E491F0E075
:101FF000EE0FFF1FE35AF74F859194919093540190
:1020000080935301EAE4F8E0E491E0935201EFE6B3
:10201000F8E0E491F0E0EE0FFF1FE35AF74F8591EF
:1020200094919093510180935001E2E4F8E0E4919F
:10203000E0934F018CB58C7F8CBD8DB581608DBDDB
:10204000E0915301F0915401908180915201982BBD
:102050009083A0915001B09151012C9190914F012A
:10206000909592239C939081809589238083E9E5C4
:10207000F7E007E0E636F00749F084918EBD0000F6
:102080000DB407FEFDCF8EB53196F3CFE091500130
:10209000F0915101808190914F01892B8083E091D3
:1020A0005301F091540190818091520180958923D0
:1020B00080838091640081608093640080916400DB
:1020C00082608093640080916400806880936400E3
:1020D00080916400806480936400809165008160D9
:1020E000809365008FB19CB193B187FD1AC080E0E9
:1020F00094E01EBC00000DB407FEFDCF2EB5019785
:10210000C1F770E060E08AE00E94EF0670E060E0F6
:102110008BE00E94EF0670E060E089E00E94EF062D
:10212000FFCF7EEE272E33243A9408E010E0B10171
:1021300069517F4F8AE00E94EF066FEF70E08BE0FD
:102140000E94EF066FEF70E089E00E94EF060E94A8
:102150007104522C20EF22160CF473C0910137FE4B
:1021600004C0222733272219330927703327C101DE
:1021700037FC079663E0959587956A95E1F737FEFA
:1021800005C00197A801421B530B9A01BC0176952B
:10219000762F6627779567956A537E4FF12CE12C51
:1021A0003801621A730A8F3F5FEF95070CF43EC047
:1021B000DB0150E040E0F701E556F94F5F014B01CC
:1021C000F0E88F0E911C8F3F980781F0F501E40F26
:1021D000F51FE491022E01C0EE0F0A94EAF79896DB
:1021E000FC919897EF2B9896EC93989721153105D1
:1021F000B9F0F501E40FF51F44906401C40ED51E3B
:10220000E42DF0E0062C02C0F595E7950A94E2F77C
:10221000FC83EB83F60140A4FB814F2AF60140A624
:102220004F5F5F4F11964835510569F60196F8E505
:10223000EF0EF11C60587F4F40EBE416F10409F0FB
:10224000B2CF8AED91E00E946E086BE170E080E011
:1022500090E00E94B70750EF551206C06AEF70E099
:1022600080E090E00E94B7078FEF281A380A99E1C2
:102270002916310409F05BCF6EEE72E080E090E049
:102280000E94B7076FEF70E08AE00E94EF066FEFE1
:1022900070E08BE00E94EF066FEF70E089E00E9433
:1022A000EF0685E00E9412098DE00E94120910924B
:1022B0004D0182E090E00E944913882351F0809103
:1022C0006400877F8093640080916500877F80939E
:1022D00065008CE38093CC0180E18093CF012FB720
:1022E000F8948091550190915601A0915701B091B9
:1022F00058012FBF2091D801222391F02091D001C5
:10230000E82FE21BE093D9012091CD013091CE015D
:102310002F5F3F4F3093CE012093CD011092D80113
:102320004091D4015091D5016091D6017091D701AF
:1023300084179507A607B707ACF4481B423050F046
:1023400083B7817F83BF83B7816083BF889583B75D
:102350008E7F83BF80E090E0892B09F4C0CF0E947C
:102360000000BDCF2091CF01AC01BD01420F511D36
:10237000611D711D4093D4015093D5016093D60126
:102380007093D7018093D0019093D101A093D20193
:10239000B093D30181E08093D8010E947104E9E7F2
:1023A000F7E04491EAE7F7E08490282D2F732F5F40
:1023B000922F969596959695822F877009F09F5F3C
:1023C000842F8F778F5F382F369560E470E06B0134
:1023D000C31AD108269560E270E07B01E21AF10889
:1023E0009701942E991C9924991C7724739486FE46
:1023F000712C8901077011271A83098343E03595F1
:1024000027954A95E1F72D8320E0B0E0A0E037E082
:1024100060E170E0512C412C312C212C492F50E0EF
:102420005F834E8366246394E82EF12CF986E88658
:102430000E811F81201631060CF026C141E050E0CC
:102440005B874A87FB0193E0F695E7959A95E1F75C
:10245000E758F84FE491F0E0CB018770992702C06C
:10246000F595E7958A95E2F7AB014F5F5F4FE0FF87
:1024700007C08A859B8501969B878A87BA01E2CF30
:102480000A851B850130110569F5FA0183E0F6958F
:10249000E7958A95E1F7E758F84F849190E0477007
:1024A000552702C0959587954A95E2F7817099273F
:1024B00001966E5F7F4F50E040E0A62CA81A4817A7
:1024C000590708F0DDC08C01041B150BE32FF0E069
:1024D0009110A9C0E017F10708F043C04E0F5F1F2D
:1024E00030E042C08A859B8501979C838B8381E085
:1024F00090E00B8002C0880F991F0A94E2F70196C2
:1025000010E000E07801E40EF51EF701F695E7957E
:10251000F695E795F695E795E758F84FE491AE2ED6
:10252000B12CE7E0EE22FF2402C0B594A794EA9410
:10253000E2F7A0FE0AC0E1E0F0E0002E02C0EE0FDC
:10254000FF1F0A94E2F78E0F9F1F0F5F1F4FEB8054
:10255000FC800E151F05B4F20A851B85600F711FE4
:10256000AACF3A0D340FAC01315008F059C02223E4
:1025700009F441C0BD80B20C17E01B15E4F1F6016F
:10258000EA0FFB1FE038F105B4F530E0790109806E
:1025900002C0EE0CFF1C0A94E2F7B7FC10C02B2D12
:1025A00030E82303F0011124EC0DFD1DEA0FFB1FA1
:1025B0008F0106521E4FF80120812E2920830981A8
:1025C0001A81012BC1F017E0B116A9F02FEFB21656
:1025D00094F0EB2DBB0CFF0B3196F695FE2FEE27FA
:1025E000F795E795EC0DFD1DEA0FFB1FE652FE4F38
:1025F00020812F29208387FC76243FEF431A530A3A
:10260000E884F984119620E04E145F0444F00FEF43
:10261000201A300AB0E0A0E020E0512C412C37E035
:102620004F5F5F4F4CCFE017F107E8F43730C9F048
:10263000772079F007E010E00E1B1F0BEE24EA94E0
:10264000F12C02C0F594E7940A95E2F78701202B5C
:1026500045CF00E81FEF02C0169507953A95E2F7BF
:10266000F6CF2FEF3BCF772029F0E45FFE4FE081DC
:102670002E2B7ACF07E010E00E1B1F0BF801F5CFD1
:10268000162D1919912ED4CE8AED91E00E946E0874
:1026900061CEF999FECF92BD81BDF89A992780B598
:1026A0000895052E97FB1EF400940E94681357FDB1
:1026B00007D00E94701307FC03D04EF40C946813EB
:1026C00050954095309521953F4F4F4F5F4F08955E
:1026D00090958095709561957F4F8F4F9F4F08958E
:1026E000A1E21A2EAA1BBB1BFD010DC0AA1FBB1F16
:1026F000EE1FFF1FA217B307E407F50720F0A21B88
:10270000B30BE40BF50B661F771F881F991F1A94F4
:1027100069F760957095809590959B01AC01BD011E
:10272000CF010895A29FB001B39FC001A39F700D78
:10273000811D1124911DB29F700D811D1124911DC9
:102740000895EE0FFF1F0590F491E02D099481E0AC
:0C27500090E0F8940C94AC13F894FFCFC8
:10275C00FFFFFFFF00E10000000000000102040881
:10276C001020408000C1808100000000000000CFDC
:10277C0004E907F004E5043605F404120500000032
:0A278C0000830915069E0A9D0A004D
:00000001FF
