:100000000C94A4070C94CC070C94CC070C94CC074C
:100010000C94CC070C94CC070C94CC070C94CC0714
:100020000C94CC070C94CC070C94E10D0C94500E5E
:100030000C94CC070C94CC070C94CC070C94CC07F4
:100040000C94CC070C9493110C94CC070C94CC0713
:100050000C94CC070C94CC070C94CC070C94821015
:100060000C94CC070C94CC070C94CC070C94CC07C4
:100070000C94CC070C94CC070C94CC070C94CC07B4
:100080000C94CC100C94CC070C94CC070C94CC079B
:100090000C94CC070C94CC070C94CC070C94CC0794
:1000A0000C94CC070C94CC070C94CC073FBFFFDD1D
:1000B000C93EF5D6DB389CBC7AF5C7F734FEF6DBD3
:1000C000DFCF64B95C8E1573502FE3D6A37FFEAEED
:1000D000237F843DFECDF5D6557FF66AFC37F7BB0E
:1000E00099E69FDEF73C9C72FC12E3DF16BB2E56AE
:1000F0006F3D1DFCDEEAD1DB9F163FBFFFDDC93E31
:10010000F5D6DB389CBC7AF5C7F734FEF6DBDFCFDB
:1001100064B95C8E1573502FE3D6A37FFEAE237FA8
:10012000843DFECDF5D6F5E367E2BFB9DFCD34FF00
:10013000F4BEE7E194E39718FFB6D875B17AEBE126
:10014000E4F7568FDEFEB43FFF7F1E8F3DFACF9758
:10015000DBEF987BCFCB3AF5D65BAEBEF6EAB1A724
:10016000FCA5EB9F841DBAF73E8C5B6FB97AE5CF97
:100170009FC3A9377FF5385CF2CFED4F6196F06FE2
:10018000ECFB639E663F55FE79757C26871BDF6915
:10019000BEF52F893433B7DE567FCDCED5ABFEF119
:1001A000003FBF7F15C8E1B02EEB32C73FDFDFE174
:1001B000ADB79ED6655DD661EFBD2FBDF5362EC1BC
:1001C000837FE9E55F05DDF5EAD57F3E5EF6FE8BD0
:1001D000CCFCEB5AFD03B026FFAA66BEC36DAE632E
:1001E0004E9FFF67F4C1433F3FF9EEBF1C3B3DF616
:1001F00074F007B96F5E3DC43F1C3FBF7FA232C69B
:10020000ADB7DED6FAC7FB43B97AECADB79ED6657B
:10021000AFCBBA042F863FFAC81F65E75FD9DA7FF4
:1002200093CC7F5A3B7F87E93F236E073F93CB6197
:100230001C73F801FF7A32BE9279E4FB93EFFECB98
:10024000A9D3632FBF8E7DF3EA21FEE1003FBF7F7C
:10025000B8AC5BAE5E73DABDF2AF738CDFCB35B793
:100260009ED661CF53AE5EBDF277EFFA7B7C85AB55
:1002700057AF5EFDE7A07F0B0EFFB04EFE1DA6FF41
:100280008CBC9C78E769CE93E78EEFFFFB617E67BD
:10029000F4D77CF89F8EE3E8718D9F9779F4EAAEEE
:1002A0007F383FBF7FD3C3B8F5D6D31CFF3CB9ED31
:1002B000F1EBB8E6360E7B9EFA8F68E54F50AFB98A
:1002C000F5B42E9A6DDDD66DF927B0FC0BB8FE693A
:1002D0009DFC3BACFE2BCA3EF98EDB5C47AEAB5FB0
:1002E0001EFC3BFA4EC7AFF9E63FA3C1F4380EBF80
:1002F0006D8CA357E7F00F073FBF7FF6DCC6655D47
:10030000C6917F9DE332FB63E63E8C23FFBE46FE33
:100310000EDE32BD8D79E49F4BFD2B7CCBE3B884A0
:10032000ECD895E60FBEFD2BFCFB5AFD8EA7DDE356
:10033000EA77FF7D393EF4E9CFD97F528EBA7A5AF7
:10034000F3C8A7E3EAD1AB09C33F1C3FBFFFD9CB3A
:100350006DE7EAD56B4EFFF43CDCF8F9B91CFA0FF7
:1003600029F973ACB54F7972C93F933FC3E6F339AE
:10037000ADC3FCA37B9AFD0EA7C3EC77FFB97DF755
:100380000B9FFDA766566FBD1DF8525D3D7A356126
:10039000F887033FBFFF919CF3B22E73FF53CB6DE1
:1003A0001C0EE3D65BAE7C1C47FF1DA593BF97EBED
:1003B0009FD0DFE134D7658E7F4E4CF393FF1DC68F
:1003C000EFE67B2EF2CF8EAEDE7A2B8E8771F5E8CC
:1003D000D51CFCC3013FFFFFB15C87BDF79EFFB892
:1003E000BC8DCBDC8775EAAD3F24FE33DA3C0AF9DD
:1003F000F3FCA3F1D6FEFEB90E7BAF23FF7E381EC1
:10040000F89DCC7F94BFF31F61463B58BD15E6694C
:10041000F796ABB3D13F1E3FBFFFD51C87BDF76139
:10042000DDF8E794DBB8CC7919B7DEFA1B76FE5914
:10043000E4B20E49DA392F2B7F98CDBF9FD19F3D73
:10044000E63EACC325FF9CB27FECBFCFCFF1BD8CA5
:100450007F816D5DBDF570E352668F5ECDC13F1C3F
:100460003FBFFFD9EC61EFBDE7C97F3DE332F79EA7
:100470009771CBD5AB57BE3BC63F0447569A95E420
:10048000306E1D4DFDD3ACFC035AFCE438E6BCAC29
:10049000CB21FF9C327FED3FC69D6F1CE6FADAC888
:1004A0003FBDB27AEBFA545C3D7A3507FF703FBF2F
:1004B000FFD9EC61EFBDF7217FEDDE7A1B17CDB6DA
:1004C000196DB35C2EA67F10F95373F5CA6773DA02
:1004D000E36FF48F26FE78BDE6362EEB1FD367FD63
:1004E00019AE7F5F5C6EBC1AF3C89DDBEEE7FE9130
:1004F000ADCBBAF153CAEAD1AB39F887033FFFFF5E
:10050000B9CBADB7DEC665AEA3578F5DF48FEBB642
:100510006EEBB64E97CB9574D58EE1E85F05CDBFF7
:100520009E7138F467F1F51EFECD2C7FFECAE6EA17
:10053000957F379E3EC171CDC3C55FF16FEA2B1C1D
:10054000BE3D0E17BFB3FC37143A2FB33FB0E3964E
:10055000ABDBEA1F0F3FFFFF5E38F6D65BFE757917
:10056000F5382E73EFBDF71E9FCDE1CFCAB659699E
:10057000569AE54A334D76E8DEC50B7F967F3AD929
:10058000A7FC4CAE5E3DAE75E4DF49FBC7F897951E
:10059000CBF70EEBD4CBC5EF66FC3BFAE8C1AF8FCF
:1005A000C3C5AF6CFFDD8C71F458C30FCC3CE5EADA
:1005B0004EF48F073FBFFF2C725A97751947FEF90B
:1005C000E4D6D33AEC7919B7DE7AF3CB197F689782
:1005D0002BCD4A33AD07F5326E1D4D33FD8BD87FE1
:1005E0002EA4E3C8EFF6D65BF7BFA2913FC73F2C1E
:1005F000E767C738E672185FEDFAD7F4B9EE8F7384
:100600005CEB2B9EFECDB84FB966D55F3AC6D1AB39
:1006100073F887033FBFFF0AC661EFBDE7C97F3E9E
:10062000BDCC7D589771CBD5AB57BE6DFEF0CE34A7
:10063000CB957A504FBD65B5E6201EF9FD8C7F3312
:1006400019C3BFC5BAACCB857F469BDFCFFC77F61D
:10065000DD95B397C3F8E6CCBFA7C977B27FCA9838
:100660005FE1F6AFE7946B36F9A55D47AFCEE11FCA
:100670000E3FBF7FE61E0EEBB22E73FE5B1A7BCFE2
:10068000536FB9FA13C3E4DF81B771091D9921973C
:100690003146E4AFC3F887E09597ECE44F417A58D0
:1006A00097D97F4F7F8ECDBFB3EF2EEF5E0EE3C89D
:1006B00057E6F857E5FED4F6FB3D7CB2E35FCEF09B
:1006C000EA718CDF9779F4EA1CFEE1003FFF7FDCE2
:1006D000B9F7DE7BDEF8F7E36D5CE6BCAC538FFE6A
:1006E00034B3F8F7C27166F690E11FE85F0776EF62
:1006F0008B6BE66F4073589775F8B7F4F7C8FC57E3
:10070000C6FCF6A5A7392FE32B1E4EF947B5FDCE43
:10071000AF99F90EB77F3B59C36B6E63FCB8DDAB85
:10072000572D7F373FBF7F46AF5EF9F7C8715CE654
:100730003EF4F354FE4565D495BF8EC735FE193996
:10074000FF102C6E3DAD41FF55FD11389DF877F639
:100750005D2F8775D8F3E457E6F8272523DFFB19CB
:10076000599FFA17A5CDF49A5BFD41731D9D2CF39B
:1007700037043FFFFF39CAE5306EBDF534F3CF6F64
:10078000CD9B3F8F634F73DEF897E3BCACCBF8F99A
:10079000D9F3D4E168A6FF9234FC150EFC93FB76E6
:1007A0000FFBB04E7E658E7F571983C977BEFBBDA8
:1007B000E53F2C0FF1EAB1AB7C39A73D8EAE36FE9A
:1007C0002D013FBFFFD1997BCFC39E27FFB5AEFE62
:1007D0009ADEC6651D0EE396AB57AF5E739A17FEA1
:1007E000F07F13ED3E8C5B6FBDE5EA95BF3FC7B56B
:1007F0000FFEEE8CF86FCEF9F11EF9CECA3F393AF2
:10080000F2D9479F5CFEA3D30686D7DCBA5E8FCBB6
:10081000215757F397063FBFFF915987BDF761DD19
:10082000F8FB70F4DF81F936B7DE7AEB6D5CE6DE5B
:100830007BC7CC34232BC99E27FFFE7F0B5B57FE63
:10084000B1ADF547C822FFFC7E6CC73FC08CC1F735
:10085000BAF954C63F426D6078CDADFBB40E7BDD76
:10086000B232ECE62F0D00000000003E5B4F5B3E15
:100870003E6B4F6B3E1C3E7C3E1C183C7E3C181C65
:10088000577D571C1C5E7F5E1C00183C1800FFE75C
:10089000C3E7FF0018241800FFE7DBE7FF30483A02
:1008A000060E2629792926407F050507407F052564
:1008B0003F5A3CE73C5A7F3E1C1C08081C1C3E7FEC
:1008C00014227F22145F5F005F5F06097F017F00B3
:1008D0006689956A606060606094A2FFA2940804D3
:1008E0007E040810207E201008082A1C08081C2AF4
:1008F00008081E101010100C1E0C1E0C30383E384C
:1009000030060E3E0E06000000000000005F0000F2
:100910000007000700147F147F14242A7F2A122363
:100920001308646236495620500008070300001C73
:100930002241000041221C002A1C7F1C2A08083E7C
:10094000080800807030000808080808000060608F
:100950000020100804023E5149453E00427F4000FD
:1009600072494949462141494D331814127F1027D5
:10097000454545393C4A4949314121110907364924
:10098000494936464949291E0000140000004034F8
:1009900000000008142241141414141400412214FD
:1009A0000802015909063E415D594E7C1211127C24
:1009B0007F494949363E414141227F4141413E7F85
:1009C000494949417F090909013E414151737F0865
:1009D00008087F00417F41002040413F017F08140B
:1009E00022417F404040407F021C027F7F0408106C
:1009F0007F3E4141413E7F090909063E4151215E4A
:100A00007F09192946264949493203017F01033FDD
:100A10004040403F1F2040201F3F4038403F63146C
:100A200008146303047804036159494D43007F416E
:100A300041410204081020004141417F04020102AB
:100A400004404040404000030708002054547840D0
:100A50007F284444383844444428384444287F3864
:100A60005454541800087E090218A4A49C787F08E6
:100A700004047800447D40002040403D007F102861
:100A8000440000417F40007C047804787C08040422
:100A9000783844444438FC1824241818242418FCBA
:100AA0007C08040408485454542404043F44243C5F
:100AB0004040207C1C2040201C3C4030403C4428CE
:100AC0001028444C9090907C4464544C4400083668
:100AD00041000000770000004136080002010204D6
:100AE000023C2623263C1EA1A161123A4040207AF6
:100AF0003854545559215555794121545478412140
:100B00005554784020545579400C1E527212395574
:100B10005555593954545459395554545800004571
:100B20007C410002457D420001457C40F02924299A
:100B3000F0F0282528F07C545545002054547C546E
:100B40007C0A097F493249494932324848483232A1
:100B50004A4848303A4141217A3A42402078009D43
:100B6000A0A07D39444444393D4040403D3C24FFF1
:100B70002424487E4943662B2FFC2F2BFF0929F69E
:100B800020C0887E090320545479410000447D41EF
:100B90003048484A32384040227A007A0A0A727D48
:100BA0000D19317D2629292F282629292926304863
:100BB0004D4020380808080808080808382F10C8D1
:100BC000ACBA2F102834FA00007B000008142A1455
:100BD0002222142A14089500220095AA005500AA82
:100BE000AA55AA55AA000000FF00101010FF00141B
:100BF0001414FF001010FF00FF1010F010F0141478
:100C000014FC001414F700FF0000FF00FF1414F49C
:100C100004FC141417101F10101F101F1414141F9D
:100C200000101010F0000000001F101010101F1016
:100C3000101010F010000000FF1010101010101015
:100C40001010FF10000000FF140000FF00FF000064
:100C50001F10170000FC04F414141710171414F4D8
:100C600004F40000FF00F714141414141414F70013
:100C7000F7141414171410101F101F141414F41464
:100C80001010F010F000001F101F0000001F1400D3
:100C90000000FC140000F010F01010FF10FF1414FE
:100CA00014FF141010101F00000000F010FFFFFFD1
:100CB000FFFFF0F0F0F0F0FFFFFF0000000000FF8A
:100CC000FF0F0F0F0F0F38444438447C2A2A3E147C
:100CD0007E02020606027E027E02635549416338A7
:100CE00044443C04407E201E2006027E020299A558
:100CF000E7A5991C2A492A1C4C7201724C304A4DB6
:100D00004D303048784830BC625A463D3E494949EA
:100D1000007E0101017E2A2A2A2A2A44445F444493
:100D200040514A444040444A51400000FF0103E022
:100D300080FF000008086B6B083612362436060F59
:100D4000090F06000018180000001010003040FFC6
:100D50000101001F01011E00191D1712003C3C3C3F
:100D60003C000000000006011501260137014A0180
:100D70005D01720188019F01B801D201EE010B02F1
:100D80002A024B026E029302BA02E40210033F03EE
:100D90007003A403DC03170455049704DD0427053E
:100DA0007505C80520067D06E0064907B8072D0829
:100DB000A9082D09B9094D0AEA0A900B400CFA0C52
:100DC000C00D910E6F0F5A1053115B1272139A14CB
:100DD000D41520178018F519801B231DDE1EB420A2
:100DE000A622B524E4263429A72B402E0031EA336D
:100DF0000037453ABC3D68414C456B49C84D685287
:100E00004F57805C006210111213151617181A1C28
:100E10001D1F21232527292C2E3134373A3E4145E9
:100E2000494E52575C62686E757B838B939CA5AF6D
:100E3000B9C4D0DCE9F70000000200090F0000038C
:100E40000401000C00000000000000000000000091
:100E5000000000000000000000240027002A002DF0
:100E6000003000D5F08D14A1C881CFD9F1AF20009A
:100E700014021302120215020702080204010C01F7
:100E8000060100080B000202020000090400000134
:100E900002020000052400100105240101010424C0
:100EA000020605240600010705810310004009041D
:100EB0000100020A000000070502024000000705C9
:100EC00083024000000403090412010002EF020142
:100ED00040412336800001010203014172647569BB
:100EE0006E6F204C4C430041726475696E6F204CEC
:100EF000656F6E6172646F000408020110408040EB
:100F0000102040804080080204018040201002012F
:100F10001080102040402000000000250028002BF9
:100F2000002E00310004040404040304050202023C
:100F30000204030202020206060606060604040272
:100F4000020204040301FE1111241FBECFEFDAE0F8
:100F5000DEBFCDBF11E0A0E0B1E0E0ECFDE202C0F9
:100F600005900D92AA36B107D9F726E0AAE6B1E0BE
:100F700001C01D92A631B207E1F717E0C4EAD7E03D
:100F800004C02197FE010E94D316C33AD107C9F7C6
:100F90000E9431120C94DE160C940000FC0180912A
:100FA000A401882311F13FB7F89482E08093E9000F
:100FB0002091F200822F90E01816190614F481E0B7
:100FC00090E0882339F0289844E64093A3014091AB
:100FD000F1004083222339F02091F200211103C057
:100FE0002BE62093E8003FBF08958FEF9FEF089511
:100FF0002FB7F89483E08093E9009091E800892F5F
:10100000807295FF04C09091F20080E4891B2FBF8D
:10101000089580919B0181110DC082E0809397011A
:1010200084E08093980110929A011092990181E0D6
:1010300080939B0187E991E00895CF93DF931F92FE
:10104000CDB7DEB76983DC01ED91FC910280F381BD
:10105000E02D41E050E0BE016F5F7F4F09950F909A
:10106000DF91CF91089583E08093E9008091F200B1
:10107000882319F08AE38093E80008950E94F80716
:1010800090E00895CF93DF931F92CDB7DEB7FC01B8
:101090008485958597FD08C02FEF3FEF358724871E
:1010A0000F90DF91CF910895CE0101960E94CE0757
:1010B000019719F4898190E0F3CF8FEF9FEFF0CF84
:1010C0000F931F93CF93DF931F92CDB7DEB78C01A1
:1010D000FC018485958597FF0BC0CE0101960E9487
:1010E000CE07019771F4898190E0F8019587848794
:1010F000F801848595850F90DF91CF911F910F9115
:1011000008958FEF9FEFF1CFFC018485958597FDC2
:101110000BC09FB7F89482E08093E9008091F200C1
:101120009FBF90E0019608959FB7F89482E0809366
:10113000E9008091F2009FBF90E0089540919101F5
:101140005091920120918F013091900142175307E5
:10115000B4F49091E8009570E1F39091E80092FD6D
:1011600019C08093F10080919101909192010196B4
:101170008F739927892B19F48EEF8093E800809163
:101180009101909192010196909392018093910127
:1011900081E0089580E00895EF92FF920F931F93EE
:1011A000CF93DF93F82E192FE62E042F81E0860FC0
:1011B000880F0E949E0883E00E949E08CF2DD12FA9
:1011C000EC0EFD2EF11CCE15DF05B9F007FF13C0A4
:1011D000FE0184910E949E08182F80E00E949E08C4
:1011E000812321968111EFCFDF91CF911F910F9134
:1011F000FF90EF9008958881EDCF81E0F5CFDF92E9
:10120000EF92FF920F931F93CF93DF93D82E8A0113
:10121000EB017B01E40EF51ECE15DF0559F0D7FE7C
:1012200012C0FE0184910E949E0821968111F4CF84
:101230000FEF1FEFC801DF91CF911F910F91FF902A
:10124000EF90DF9008958881EECF0F931F93CF9397
:10125000DF931F92CDB7DEB782E0898342E450E08E
:1012600063E87EE080E80E94FF080E940908DC0134
:1012700012960D911C910115110589F0D801ED917F
:10128000FC910280F381E02DBE016F5F7F4FC801AA
:10129000099597FD04C0F80100851185ECCF89817F
:1012A0000F90DF91CF911F910F910895615030F011
:1012B0002091F100FC0120830196F8CF289884E664
:1012C0008093A3010895AF92BF92CF92DF92EF92E5
:1012D000FF920F931F93CF93DF936C017B018B01E0
:1012E000040F151FEB015E01AE18BF08C017D10730
:1012F00059F06991D601ED91FC910190F081E02DBA
:10130000C6010995892B79F7C501DF91CF911F910E
:101310000F91FF90EF90DF90CF90BF90AF90089526
:10132000282F30E0F901EA5CF14F9491F901E8507F
:10133000F14F84912B5D304FF9012491222309F460
:1013400030C09923E9F091509F30D0F4E92FF0E0BC
:10135000E455F64F0C94D316DA09DE09BB09D2091D
:10136000D609C009C009C009E109E709EB09EF097D
:10137000F509C009F909909180009F77909380004A
:10138000E22FF0E0EE0FFF1FE95EF04FA591B49160
:101390009FB7F894EC91611132C080958E238C93A5
:1013A0009FBF0895909180009F7DE8CF909180002D
:1013B000977FE4CF94B59F7794BDE2CF94B59F7D9E
:1013C000FBCF909190009F7790939000D9CF909110
:1013D00090009F7DF9CF90919000977FF5CF9091ED
:1013E000C0009F779093C000CBCF9091C0009F7DAD
:1013F000F9CF9091C200977F9093C200C1CF8E2BFE
:10140000CECFCF93DF9390E0FC01E850F14F2491D1
:101410008B5D904FFC0184918823C9F090E0880F88
:10142000991FFC01EB5AF14FA591B491FC01E95EC3
:10143000F04FC591D49161110DC09FB7F8948C9174
:10144000209582238C938881282328839FBFDF9156
:10145000CF910895623051F49FB7F8943C91822F58
:10146000809583238C93E8812E2BEFCF8FB7F89450
:10147000EC912E2B2C938FBFEACF1F93CF93DF934A
:10148000182FEB0161E00E94010A209739F460E017
:10149000812FDF91CF911F910C949009CF3FD105FF
:1014A00011F461E0F5CFE12FF0E0EA5CF14FE49157
:1014B000E150EF3008F07FC0F0E0EF59F54F0C94A9
:1014C000D316700A780A7D0A870A910ADB0ADB0ABA
:1014D000DB0A9B0AA50AAF0AB90AC60ADB0ACE0ACA
:1014E00084B5806884BDC7BDDF91CF911F910895F9
:1014F00084B5806284BDC8BDF7CF809180008068CC
:1015000080938000D0938900C0938800EDCF8091B4
:101510008000806280938000D0938B00C0938A000B
:10152000E3CF80918000886080938000D0938D000D
:10153000C0938C00D9CF80919000806880939000F8
:10154000D0939900C0939800CFCF80919000806293
:1015500080939000D0939B00C0939A00C5CF809158
:101560009000886080939000D0939D00C0939C0071
:10157000BBCF8091C00080688093C0008091C00084
:101580008F7B8093C000C093CF00AECF8091C0000E
:1015900080628093C000C093D000A6CF8091C2002B
:1015A00088608093C2008091C2008B7F8093C200CC
:1015B000C093D20099CFC038D1050CF072CF67CF5D
:1015C0003FB7F8948091790190917A01A0917B01C5
:1015D000B0917C0126B5A89B05C02F3F19F001965C
:1015E000A11DB11D3FBFBA2FA92F982F8827BC017D
:1015F000CD01620F711D811D911D42E0660F771FA5
:10160000881F991F4A95D1F708958F929F92AF92A4
:10161000BF92CF92DF92EF92FF924B015C010E944A
:10162000E00A6B017C010E94E00A6C197D098E09B9
:101630009F09683E734081059105A8F321E0821A55
:101640009108A108B10888EEC80E83E0D81EE11CFD
:10165000F11C81149104A104B10429F7FF90EF90CB
:10166000DF90CF90BF90AF909F908F9008958F9212
:101670009F92AF92BF92CF92DF92EF92FF920F9321
:101680001F93CF93DF936C017B018A0180910B0143
:10169000882309F45CC08091A401882309F457C011
:1016A0008091960180FF05C08091E0008260809368
:1016B000E000E801B12C8AEFA82E93E0892E2AE3FE
:1016C000922E209711F4BB20D9F10E94F8078111C6
:1016D0000AC0AA94AA20D9F161E070E080E090E00D
:1016E0000E94050BEECF8C171D0611F00CF08C2F0D
:1016F0009FB7F8948092E9002091E80025FD02C090
:101700009FBFDFCF282F30E0C21BD30BF7018150E2
:1017100020F041914093F100FACFE20EF31EBB207E
:1017200021F09092E800B12CEBCF8091E80085FD8C
:10173000E7CF9092E800BB24B394209709F3F3CF4E
:101740005D9884E680939501101611063CF081E0C7
:1017500090E0F6019383828310E000E0C801DF91FE
:10176000CF911F910F91FF90EF90DF90CF90BF909E
:10177000AF909F908F900895CF92DF92EF92FF925B
:101780000F931F93CF93E82FF0E0EC5BF04FC491E1
:10179000E62FF0E0603398F5EA5FF14FE4910E2F09
:1017A00010E0F12CE12C60E074E284EF90E0A701FE
:1017B00098010E946316215031094109510991E0B5
:1017C0002115310581E0480751056CF060E970EDA5
:1017D00083E090E0A70198010E946316215031092F
:1017E0004109510993E0C13089F0C330F9F0CF913C
:1017F0001F910F91FF90EF90DF90CF900895EE0F23
:10180000FF1FEA5FF24F05911491CBCF80918100C9
:10181000887F892B809381003093890020938800F2
:1018200080916F00826080936F00E1CF8091910082
:10183000887F892B809391003093990020939800A2
:10184000109377010093760181E080937501809178
:101850007100826080937100CACFE82FF0E0EC5BEA
:10186000F04FE491E13019F0E33089F00895809170
:101870006F008D7F80936F008091A801E091A90196
:10188000F091AA0190818095892380830895109218
:1018900075018091A501E091A601F091A701F2CF19
:1018A000CF93DF939091AB01923081F0C82FE92F55
:1018B000F0E0EC5BF04FD4919F5F9093AB0161E05F
:1018C0000E94010AD13029F0D33049F1DF91CF9144
:1018D00008951092800010928100809181008860AC
:1018E00080938100809181008160809381008C2FA2
:1018F00090E0FC01EB5DF04FE491F0E0EE0FFF1F94
:10190000E95EF04F259134913093AA012093A9010B
:101910008850914FFC0184918093A801D7CF1092F9
:1019200090001092910080919100886080939100C6
:10193000809191008160809391008C2F90E0FC0158
:10194000EB5DF04FE491F0E0EE0FFF1FE95EF04F2A
:10195000259134913093A7012093A6018850914F8F
:10196000FC0184918093A5018091AB01882321F033
:101970006CE380E00E94BC0B80E0DF91CF910C947F
:101980002D0C2F923F924F925F926F927F928F9287
:101990009F92AF92BF92CF92DF92EF92FF920F93FE
:1019A0001F93CF93DF9300D000D0CDB7DEB76A305E
:1019B00069F5FC01EA5EFB4FDC01A85EBB4F2C9190
:1019C00048E0249F9001112440815181240F351F4C
:1019D000318320838C5E9B4FDC011D921C920F9003
:1019E0000F900F900F90DF91CF911F910F91FF906B
:1019F000EF90DF90CF90BF90AF909F908F907F90AF
:101A00006F905F904F903F902F9008956D3039F315
:101A1000FC01E85EFB4FB0803497408151810B2D73
:101A200010E0403851050CF08DC0329680809180D6
:101A3000B0E48B1691040CF085C075E09A01B79E56
:101A4000200D311D1124121613060CF07BC09801D5
:101A5000E3E0220F331FEA95E1F7280D391D121636
:101A600013060CF06FC0679FB00111245C834B8399
:101A7000B0E0A0E0FB01EA59F74F1F01E0E0A5301C
:101A800021F0F101EA0FFB1FE491740138E0A32E6D
:101A90004E2E512CE1707E2E6B817C81262FFB8196
:101AA0002F1B2B15E0F51A82198229812B15A0F521
:101AB0006038710538F5C980DA80CE0CDF1C30E45F
:101AC000C316D104F8F42E0D322F3695369536957F
:101AD00020E8329FF0011124E60FF71F37E0C32200
:101AE000DD2421E030E002C0220F331FCA94E2F768
:101AF00069019F01280F391FF9016488772049F097
:101B0000C628C48A29813A812F5F3F4F3A832983AF
:101B1000CCCFC094C620F5CF6F5F7F4FBFCF559419
:101B20004794E42DAA94E00EF11EA110B1CF1196B6
:101B30002B813C81200F311F3C832B83A630B105C4
:101B400009F09CCF36E0B39E400D511D1124FC01DD
:101B5000EC5EFB4F5183408335962081222309F4AC
:101B60003ECF6AEF60039001619F300D1124205831
:101B70003F4F241735070CF032CFDC01ED91FC917B
:101B80000190F081E02D6AE00F900F900F900F9080
:101B9000DF91CF911F910F91FF90EF90DF90CF9049
:101BA000BF90AF909F908F907F906F905F904F907D
:101BB0003F902F900994089590E080E008950E944E
:101BC000D9161F920F920FB60F9211248F939F93E5
:101BD0008091E1009091E100937F9093E10083FF79
:101BE0000FC01092E90091E09093EB001092EC008E
:101BF00092E39093ED001092A40198E09093F0008E
:101C000082FF22C093E09093E9009091F200992323
:101C100019F09AE39093E80090919501992341F08F
:101C200090919501915090939501911101C05D9A09
:101C30009091A301992341F09091A3019150909329
:101C4000A301911101C0289A84FF18C08091E2007D
:101C50008E7E81608093E2008091E1008F7E809390
:101C6000E100809196018E7E8061809396019F9124
:101C70008F910F900FBE0F901F90189580FFF7CF98
:101C80008091E2008E7E80618093E2008091E1008D
:101C90008E7E8093E100809196018E7E8160E5CFFB
:101CA0001F920F920FB60F921124CF92DF92EF92F4
:101CB000FF920F931F932F933F934F935F936F93D5
:101CC0007F938F939F93AF93BF93EF93FF93CF93A4
:101CD000DF93CDB7DEB76C97DEBFCDBF1092E900C2
:101CE0008091E80083FF25C068E0CE0145960E9400
:101CF000560982EF8093E8008D8987FF39C0909163
:101D0000E80090FFFCCF982F907609F034C19E89AF
:101D10004F89588D2F89F88C911131C0803861F529
:101D2000809194018093F1001092F1008EEF8093E6
:101D3000E8006C960FB6F894DEBF0FBECDBFDF9102
:101D4000CF91FF91EF91BF91AF919F918F917F9133
:101D50006F915F914F913F912F911F910F91FF9044
:101D6000EF90DF90CF900F900FBE0F901F901895BF
:101D70009EEF9093E800C7CF1092F100D5CF91303D
:101D800059F48111D3CF4130510581F680919401EE
:101D90008D7F80939401CACF933049F48111C6CFCF
:101DA0004130510519F6809194018260F2CF95304F
:101DB00041F48091E80080FFFCCF20682093E3008D
:101DC000B5CF963009F0A9C00B8D1C8D22E0109282
:101DD000E9001092920110929101F2122EC010921D
:101DE000900110928F010E9425091F8299E099832A
:101DF000FA8291E09E8390EA98879AEF99872091E2
:101E0000910130919201275F3F4F3C832B838D835B
:101E10001092E9001092920110929101109390019A
:101E200000938F0149E050E0BE016F5F7F4F80E07B
:101E30000E94FF080E94250979CF1093900100931A
:101E40008F010E940908DC0112960D911C91011569
:101E5000110509F451C1D801ED91FC910480F5817F
:101E6000E02DBE016B5E7F4FC8010995009709F018
:101E70003EC1F80100851185EACFF3E0FF120EC0E4
:101E80008F89882309F440C0823061F440E860E122
:101E900087EE9EE00E94CC08811148CF81E28093BA
:101EA000EB0047CF813029F440E86BE08BED9EE0FA
:101EB000F1CF833099F70E940908DC011296ED906A
:101EC000FC908E010F5F1F4F6801E114F10479F05F
:101ED000D701ED91FC910680F781E02DB801C70193
:101EE0000995080F111DF701E084F184EECFD801A8
:101EF0001C92F60101900020E9F73197BF016C199F
:101F00007D0940E0C601C6CF65EC7EE0FB0144914F
:101F100050E080E80E94FF0809CF973009F4BECF57
:101F2000983021F481E08093F10000CF993009F0DE
:101F3000FDCE837009F0B2CFE5E4F1E081E031E05D
:101F400096E32191222371F08093E9003093EB0016
:101F5000DF0111972C912093EC009093ED008F5F9F
:101F6000873079F78EE78093EA001092EA008F8934
:101F70008093A401DBCE8B8D9C8D1092E900109292
:101F80009201109291019093900180938F01898D1D
:101F9000811192C08E899D89913A49F4813209F06C
:101FA0007DCF47E050E064E071E080E0B3CF913254
:101FB00009F074CF833269F48F89988DB0E0A0E086
:101FC0008093000190930101A0930201B09303015B
:101FD000ADCE803269F48091E80082FFFCCF67E0EB
:101FE00084E091E00E9456098BEF8093E8009ECE3A
:101FF000823209F09BCE8F8980930B01EEEFFFE7D1
:10200000859194918B3F9C4D51F1E0E0F8E08091F7
:10201000040190910501A0910601B0910701803B58
:102020009440A105B105F1F480910B0180FD1AC027
:10203000EE3F8AE0F80789F587E797E79183808389
:10204000809160008093930188E19BE00FB6F89443
:10205000A895809360000FBE9093600067CEEEEF6E
:10206000FAE0D5CF808191818737974709F05ECE1E
:10207000A8958091600088618093600080919301B1
:1020800080936000EE3F2AE0F20789F08091FE0A1B
:102090009091FF0A9183808349CE80819181873717
:1020A000980751F29093FF0A8093FE0AC5CF1092D1
:1020B000FF0A1092FE0A3ACE0E940908DC0112962D
:1020C0000D911C910115110509F4E8CED801ED918F
:1020D000FC910190F081E02DBE016B5E7F4FC80145
:1020E0000995811123CEF80100851185EBCF1816D3
:1020F00019060CF41BCED2CEF1E0FF12BECE69EC75
:102100007EE004CF1F920F920FB60F9211242F93EF
:102110003F938F939F93AF93BF938091850190914D
:102120008601A0918701B09188013091780123E068
:10213000230F2D3758F50196A11DB11D209378016D
:102140008093850190938601A0938701B0938801C5
:102150008091790190917A01A0917B01B0917C01ED
:102160000196A11DB11D8093790190937A01A093EE
:102170007B01B0937C01BF91AF919F918F913F9173
:102180002F910F900FBE0F901F90189526E8230FE8
:102190000296A11DB11DD2CF1F920F920FB60F92C2
:1021A00011242F933F934F935F936F937F938F935C
:1021B0009F93AF93BF93EF93FF9380917501882313
:1021C00049F08091A501E091A601F091A7019081CD
:1021D0008927808380917D01882309F456C08091EE
:1021E000710190917201A0917301B0917401892BDA
:1021F0008A2B8B2B09F449C0809171019091720157
:10220000A0917301B09174010197A109B109809364
:10221000710190937201A0937301B0937401892BA3
:102220008A2B8B2B91F5E0916F01F0917001BF012A
:102230006F5F7F4F7093700160936F012491922FB5
:10224000907F822F8F70903819F40E942D0CEBCF65
:10225000903981F43296F0937001E0936F01FB01A5
:1022600064919091AB018917F0F667FDDCCF0E9475
:10227000BC0BD9CF903E29F41092700110926F01DF
:10228000D2CF903F99F410927D01FF91EF91BF91D1
:10229000AF919F918F917F916F915F914F913F91FE
:1022A0002F910F900FBE0F901F90189597FDBBCFE9
:1022B0003296F0937001E0936F01FB016491A0915D
:1022C0007601B0917701322F262F0E94A4166C5010
:1022D0007E4F8F4F9F4F28EE33E040E050E00E944A
:1022E00082162093710130937201409373015093D1
:1022F00074018091710190917201A0917301B0916C
:102300007401892B8A2B8B2B09F0BFCF81E090E0E1
:10231000A0E0B0E08093710190937201A0937301EB
:10232000B0937401B2CF1F920F920FB60F92112487
:102330008F939F93AF93BF93EF93FF9380916E0121
:10234000882309F452C080916A0190916B01A09199
:102350006C01B0916D01892B8A2B8B2BA1F190918F
:10236000A801E091A901F091AA01808189278083C9
:1023700080916A0190916B01A0916C01B0916D0107
:10238000181619061A061B069CF480916A01909192
:102390006B01A0916C01B0916D010197A109B10988
:1023A00080936A0190936B01A0936C01B0936D01CF
:1023B000FF91EF91BF91AF919F918F910F900FBEC1
:1023C0000F901F90189510926E0180916F008D7F75
:1023D00080936F008091A801E091A901F091AA017A
:1023E0009081809589238083E3CF9091A801E0912B
:1023F000A901F091AA0180818927F5CFECEAF1E0EB
:102400001382128288EE93E0A0E0B0E0848395838B
:10241000A683B7838FE491E0918380838FEF9FEF52
:1024200095878487ECEFF1E01382128281E691E0D8
:10243000918380838CE3868380E181871086178275
:1024400016861786108A118A128A10921106109227
:102450001006109213061092120681E08093140663
:102460000895CF93DF93CDB7DEB7E0970FB6F8941A
:10247000DEBF0FBECDBF789484B5826084BD84B5C5
:10248000816084BD85B5826085BD85B5816085BD6F
:1024900080916E00816080936E0010928100809127
:1024A00081008260809381008091810081608093AF
:1024B00081008091800081608093800080919100F4
:1024C000826080939100809191008160809391005F
:1024D000809190008160809390008091C100846021
:1024E0008093C1008091C10082608093C10080917F
:1024F000C10081608093C1008091C300816080939E
:10250000C3008091C00082608093C0008091C200AF
:1025100081608093C20080917A00846080937A0009
:1025200080917A00826080937A0080917A00816045
:1025300080937A0080917A00806880937A0010926C
:10254000A40110929401109296018091D7008160AD
:102550008093D70080EA8093D80089B5806189BDD7
:1025600089B5826089BD09B400FEFDCF61E070E0ED
:1025700080E090E00E94050B8091D8008F7C806104
:102580008093D8008091E000807F8093E00080916C
:10259000E1008E7E8093E1008DE08093E200559A09
:1025A000209A1FB7F89480917E01811127C0E6E33D
:1025B000FFE08491E9E0FFE09491E82FF0E0EE0F76
:1025C000FF1FEB5AF14FA591B491EC91E92321F44F
:1025D00061E081E10E94900961E081E10E94010ACD
:1025E0008CB580618CBD8CB580648CBD61E08FE062
:1025F0000E94010A61E080E10E94010A80917E014F
:102600008F5F80937E011FBF00E71EE0B801F801D5
:1026100084916F5F7F4F0E5F1F4FFB016491882392
:1026200019F00E94010AF2CF61E086E00E94900951
:1026300061E070E080E090E00E94050B60E086E0E1
:102640000E9490096AE070E080E090E00E94050B33
:1026500061E086E00E949009E1E3FFE0E491F0E0B0
:10266000EE0FFF1FE95EF04F8591949190938401E6
:1026700080938301E4E0FFE0E491E0938201E9E2EA
:10268000FFE0E491F0E0EE0FFF1FE95EF04F85916F
:1026900094919093810180938001ECEFFEE0E491AE
:1026A000E0937F018CB58C7F8CBD8DB581608DBD35
:1026B000E0918301F0918401908180918201982BB7
:1026C0009083A0918001B09181012C9190917F0124
:1026D000909592239C939081809589238083E3E653
:1026E000FEE080E79EE08E179F0749F024912EBD03
:1026F00000000DB407FEFDCF2EB53196F4CFE0916A
:102700008001F0918101808190917F01892B8083EC
:10271000E0918301F0918401908180918201809504
:10272000892380838091640081608093640080911C
:10273000640082608093640080916400806880936C
:1027400064008091640080648093640080916500DF
:102750008160809365008FB19CB193B187FD1AC0F1
:1027600080E094E01EBC00000DB407FEFDCF2EB546
:102770000197C1F770E060E08AE00E943D0A70E0D6
:1027800060E08BE00E943D0A70E060E089E00E941A
:102790003D0AFFCF85E00E94500C8DE00E94500C56
:1027A00010927D0182E090E00E945B16882351F038
:1027B00080916400877F8093640080916500877FAB
:1027C000809365008CE38093020280E18093050290
:1027D0002FB7F8948091850190918601A09187018F
:1027E000B09188012FBF20910E02222391F02091F9
:1027F0000602F82FF21BF0930F0220910302309192
:1028000004022F5F3F4F3093040220930302109283
:102810000E0240910A0250910B0260910C027091DD
:102820000D0284179507A607B707ACF4481B423082
:1028300050F083B7817F83BF83B7816083BF889562
:1028400083B78E7F83BF80E090E0892B09F4C0CFEF
:102850000E940000BDCF20910502AC01BD01420FD6
:10286000511D611D711D40930A0250930B0260932C
:102870000C0270930D028093060290930702A093BE
:102880000802B093090281E080930E0280E192E099
:1028900020E0B22FB111BFEFFC010024B193B1933E
:1028A000B193B1930394D1F7809103029091040204
:1028B00068E170E00E94BF16FC01EE0FFF1FEC5EA6
:1028C000FE4F20803180F10124913196E490EAA2FC
:1028D0005E2D5F735F5F452F469546954695852F24
:1028E000877009F04F5F322F3F773F5F632F669508
:1028F00080E490E08C01061B11091CA30BA35695E4
:1029000080E290E0851B9109632F70E07FA36EA3A6
:10291000221F2227221F2DA3DC01A770BB27B9A7E6
:10292000A8A7E42FE150FF0B4F0177247394EAA08E
:10293000E6FC712C0EA11FA1015011091BA70AA7CB
:1029400023E0959587952A95E1F78EA7280120E049
:1029500037E060E170E0D12CC12C842F90E098AB7F
:102960008FA766246394AFA5B8A98A169B0608F0C2
:102970001FC1A1E0B0E0FB0193E0F695E7959A95C1
:10298000E1F7E20DF31DE491F0E0CB0187709927A8
:1029900002C0F595E7958A95E2F7AB014F5F5F4F6F
:1029A000E0FF03C01196BA01E6CFA130B10571F581
:1029B000FA0183E0F695E7958A95E1F7E20DF31DBC
:1029C000849190E04770552702C0959587954A9568
:1029D000E2F78170992701966E5F7F4F50E040E0EB
:1029E000B62CB81A4817590708F0DDC0DC01A41B43
:1029F000B50BE32FF0E0FDA0F110A9C0EA17FB072B
:102A000008F041C04E0F5F1F30E040C08D01015003
:102A100011091DA70CA781E090E00CA402C0880F4B
:102A2000991F0A94E2F7019610E000E07801E40EA5
:102A3000F51EF701F695E795F695E795F695E79576
:102A4000E20DF31DE491AE2EB12CE7E0EE22FF245F
:102A500002C0B594A794EA94E2F7A0FE0AC0E1E0B0
:102A6000F0E0002E02C0EE0FFF1F0A94E2F78E0F77
:102A70009F1F0F5F1F4FECA4FDA40E151F05B4F29E
:102A80006A0F7B1FABCF3B0D340FAC01315008F008
:102A90005BC0222309F440C0EEA5E80DE830E4F560
:102AA000ABA1BCA1A40DB51DA038B105A8F530E0BF
:102AB00008A402C0220F331F0A94E2F7E7FD10C0FA
:102AC0000E2F10E80103D0011124EBA0FCA0AE0DE5
:102AD000BF1DA40DB51DA05FBD4FFC91F22BFC9353
:102AE00008A519A5012BC1F0E730B1F0EF3FA4F024
:102AF0000E2E000CFF0B3196F695FE2FEE27F79564
:102B0000E795ABA1BCA1EA0FFB1FE40DF51DE05F4B
:102B1000FD4F2081232B2083BAA1B7FD7624EFEF50
:102B2000CE1ADE0AEEA0FFA001E0401A510820E014
:102B3000CE14DF0444F011E0811A91084AA45BA48A
:102B400020E0D12CC12C37E04F5F5F4F4BCFEA170D
:102B5000FB07E0F43730C1F0772071F0A7E0B0E078
:102B6000AE1BBF0B0FEF10E002C015950795AA959D
:102B7000E2F7D8012A2B46CFA0E8BFEF02C0B695F6
:102B8000A7953A95E2F7F6CF2FEF3CCF772029F0C3
:102B9000E45FFE4FE0812E2B79CFA7E0B0E0AE1BC3
:102BA000BF0BFD01F5CF862D9DA1891B8DA3DBCE2B
:102BB00080918E018F5F80938E018FB7F894C090C3
:102BC0008501D0908601E0908701F09088018FBF49
:102BD00080918E016EE10E94B316911124C0809104
:102BE0008A0190918B01A0918C01B0918D01009789
:102BF000A105B10571F0A7019601281B390B4A0BFD
:102C00005B0B60E375E780E090E00E946316209321
:102C10008901C0928A01D0928B01E0928C01F092DE
:102C20008D0110928E0184E790E0909311068093BD
:102C3000100684E090E09093130680931206209192
:102C4000890130E050E040E019A28E010F5D1F4F76
:102C5000CA01B9012AE030E040E050E00E9482164B
:102C6000605DD8016E938D01211531054105510537
:102C700079F7109769F0FD0101900020E9F731978D
:102C8000AF014A1B5B0BBD018CEF91E00E94630911
:102C9000809110028EBDE1E1F2E080E196E02191A9
:102CA0000DB407FEFDCF2EBD8E179F07C1F70DB4E3
:102CB00007FEFDCFC8CDF999FECF92BD81BDF89A30
:102CC000992780B50895052E97FB1EF400940E9465
:102CD0007A1657FD07D00E94821607FC03D04EF4E7
:102CE0000C947A1650954095309521953F4F4F4F53
:102CF0005F4F089590958095709561957F4F8F4FA8
:102D00009F4F0895A1E21A2EAA1BBB1BFD010DC007
:102D1000AA1FBB1FEE1FFF1FA217B307E407F5078B
:102D200020F0A21BB30BE40BF50B661F771F881F67
:102D3000991F1A9469F760957095809590959B01FD
:102D4000AC01BD01CF010895A29FB001B39FC001A6
:102D5000A39F700D811D1124911DB29F700D811DC7
:102D60001124911D0895991B79E004C0991F9617AD
:102D700008F0961B881F7A95C9F780950895AA1BBD
:102D8000BB1B51E107C0AA1FBB1FA617B70710F056
:102D9000A61BB70B881F991F5A95A9F78095909588
:102DA000BC01CD010895EE0FFF1F0590F491E02DB9
:102DB000099481E090E0F8940C94DE16F894FFCF2B
:102DC000FFFFFFFF00E10000000000000102040817
:102DD000102040801608C20772072407CC0671062F
:102DE0001406B4055505FD04AE0460041704D503AC
:102DF00093034B03F802A2024D02FA01A10147011D
:102E0000FA00AC0000C18081000000000000001D3D
:102E100008370B3E083308840842086008000000A9
:0A2E200000C10C6309DC0DDB0D009E
:00000001FF
